:030000000214FCEB
:0C14FC00787FE4F6D8FD75816D02118741
:1014900048554D49444954593A25642E2564005411
:0B14A000454D502E3A25642E256400B7
:0912F900121224D2817F057E004F
:10130200E4FDFCC3ED9FEE6480F8EC648098501518
:10131200E4FBFA0BBB00010AEB64644A70F50DBDF5
:0513220000010C80DE5B
:0113270022A3
:10122400EF30E004D2A08002C2A0EF30E104D2A1EA
:101234008002C2A1EF30E204D2A28002C2A2EF3047
:10124400E304D2A38002C2A3EF30E404D2A4800258
:10125400C2A4EF30E504D2A58002C2A5EF30E604B3
:10126400D2A68002C2A6EF30E703D2A722C2A722E9
:0714ED007E001213027F30A4
:0814F400C2801212F9C281222C
:051544007F010214F418
:1013FD008F52A905EF3395E0FEEF64014E7005E9BC
:10140D0024808010AF52EF3395E0FEEF64024E70F2
:09141D0007E924C0FF1214F422B7
:1013A900E4FF121224C2807FC81214ED7F32121496
:1013B900ED7F6E1214ED7F381214F47F0C1214F4C1
:0A13C9007F011214F47F060214F4F1
:08153C00D2801212F9C28122D3
:061328008B528A53895428
:10132E00E4F555F556AB52AA53A954855682855508
:10133E0083120CA3FF600D12153C0556E55670E5A1
:04134E00055580E1E0
:011352002278
:051549007F1C0214F4F8
:05154E007F180214F4F7
:10142600EF30E004D2A48002C2A4EF30E104D2A5DA
:101436008002C2A5EF30E204D2A68002C2A6EF3037
:08144600E303D2A722C2A72292
:0714DB007E001213027F03E3
:0B14E200C2801214261212FCC28122EC
:0A151400E4FF1214E27F010214E26A
:041274008F15A90524
:10127800EF3395E0FEEF64014E7012E92480FFF52C
:10128800167804A2E713D8FBF517EF801EAF15EF09
:101298003395E0FEEF64024E701FE92480F516785E
:1012A80004A2E713D8FBF517E924C0540FF518AFCB
:0912B800171214E2AF181214E23F
:0112C100220A
:1012C200E4FF1214267FC81214DB7F321214DB7F74
:1012D2006E1214DB7F021214E27F021214E27F0804
:1012E2001214E2E4FF1214E27F0C1214E2E4FF1281
:0712F20014E27F060214E282
:02135300AE07E3
:10135500EE540FF9EE54F0FFD2807804A2E713D8CB
:10136500FBFF1214261212FCC281AF01121426D201
:08137500817F05121302C28101
:01137D00224D
:06137E008B108A11891298
:10138400E4F513F514AB10AA11A912851482851380
:1013940083120CA3FF600D1213530514E51470E5BA
:0413A400051380E1CC
:0113A8002222
:0A151E007F011214E27F0C0214E2B8
:0A1528007F011214E27F080214E2B2
:1014AB00758901758CFC758A67758810E58830E540
:0814BB00FB5388EF5388DF2288
:10147500E4FDFCC3ED9FEE6480F8EC648098500AAF
:0A1485001214AB0DBD00010C80E94C
:01148F00223A
:0C150800C2B07F147E00121475D2B02215
:0A15320020B0FD30B0FD20B0FD2216
:1014C300758901758CFF758AE5758810E58830E5A7
:0814D300FB5388EF5388DF2270
:1013D300E4FFFEFDFC30B0FD1214C3EF25E0FFEE89
:1013E30033FE30B006EF4401FF800020B0FD0DBD99
:0913F30000010CED64084C70DCF3
:0113FC0022CE
:101187007524007525507529CD7528CC7527E4750C
:1011970026411213A91215081215321213D38E0EF7
:1011A7008F0F1213D38E0C8F0D1213D38E0A8F0B42
:1011B7001213D38E088F097555FF755614755790FE
:1011C700850E58850F59850C5A850D5B7B007A0073
:1011D700792A120D747555FF75561475579F850A30
:1011E70058850B5985085A85095B7B007A00793E3B
:1011F700120D747D017F011213FD7B007A00793E89
:101207001213287D017F021213FD7B007A00792AD1
:0D1217001213287FB87E0B12147502119C73
:100D1800E5692455F8E605692278523007027855C6
:100D2800E475F001120CE2020C8A2000EB7F2ED24F
:100D3800008018EF540F2490D43440D4FF30040BB3
:100D4800EF24BFB41A0050032461FFE56A6002155E
:100D58006A056DE56D7002056C30070D7852E47513
:100D6800F001120CE2EF020CD002144E7403D20709
:100D78008003E4C207F5698B528A538954E4F56A03
:100D8800F56CF56DE56A60077F20120D5380F575E7
:100D98006BFFC201C200C202C203C205C206C2087A
:100DA800120D21FF700D3007057F00120D64AF6D25
:100DB800AE6C22B4255FC2D5C204120D21FF24D027
:100DC800B40A00501A75F00A786A30D50508B6FFDB
:100DD8000106C6A426F620D5047002D20380D924C1
:100DE800CFB41A00EF5004C2E5D204021051D20168
:100DF80080C6D20080C0D20280BCD2D580BAD205CB
:100E080080B47F20120D532002077401B56A004098
:100E1800F1120D18FF120D53020D8CD208D2068064
:100E280095120D18FB120D18FA120D18F94A4B708D
:100E38000679487A117BFF20022EE56A602A7E0037
:100E48008E82758300120CA360060EEE656B70F03F
:100E5800C2D5EBC0E0EAC0E0E9C0E0EE1210B1D0C4
:100E6800E0F9D0E0FAD0E0FB120C8AFF60AAEBC0F0
:100E7800E0EAC0E0E9C0E0120D53D0E02401F9D067
:100E8800E03400FAD0E0FBE56B0460DCD56BD98078
:100E980087D20280A212109460F7E56B70010412E9
:100EA8000800A96B600DE56B600914F56B12113B26
:100EB800EF60F3EA30E702F404C3995077EAF425C7
:100EC8006B0430E701E404F56B800D12109460C1E7
:100ED800EA056B256B120800EA7868F630E701E44A
:100EE800256B04D56B04200501141210B1E4C0E091
:100EF80012113B7868E6601320E70714F6120D3BE1
:100F0800802204F6D0E014C0E07F00120D3BE56BB0
:100F18006007120D32156B800B300503120D32D0AD
:100F2800E0020D8CD0E00480C512109460A0E56B3F
:100F3800041208007868EAF6E56B200502600104EF
:050F480024041210B1A9
:100F4D0074FF04C0E012113B120D3BE56B2005024E
:100F5D006003120D32D0E0B56BE87F45120D457878
:100F6D0068E67F2B30E7047F2DF404C0E0120D53AB
:100F7D00D0E075F00A84C0F0120D3CD0E0120D3CAB
:100F8D00020D8C791080027908C206C2088008D241
:100F9D00D5790A8004790AC2D5E56B047002F56B28
:100FAD00E4FAFDFEFF120D18FC7B08200113120D53
:100FBD0018FD7B1030000A120D18FE120D18FF7B64
:100FCD0020EC3382D592D55013C3E43000069FFF39
:100FDD00E49EFEE42001039DFDE49CFCE4CBF8C2FD
:100FED0001EC700CCFCECDCCE824F8F870F380175F
:100FFD00C3EF33FFEE33FEED33FDEC33FCEB33FB90
:10100D00994002FB0FD8E9EB300105F8D0E0C44858
:10101D00B201C0E00AEC4D4E4F78207B0070C2EA61
:10102D00B56B0040BCC0E01210B3D0F0D0E0200191
:10103D0004C4C0E0C4B201C0F0120D3CD0F0D5F034
:10104D00EB020D8C120CF20E29530F90580DFA4C29
:10105D000DF6420F944F0F9C440F9C490E0F430FFA
:10106D00A2550ED3460F31450E9D471168500DFE0A
:10107D002D0E022E0E252B0E06230E232011512A86
:10108D000DBE4800000E1DE56BB4FF03756B061217
:10109D000D18FC120D18FD120D18FE120D18FF780B
:1010AD006102082F790AA2D5200314300509B91061
:1010BD00020404B9080104A2D5200602500104203F
:1010CD0002689202B56A005034C0E07F20300319E7
:1010DD007F30A20272067205500F12110AC202C2AF
:1010ED0006C205C2087F30800F300503E9C0E0124B
:1010FD000D53300503D0E0F9D0E0B56ACC300517BB
:10110D007F30B9100C120D537F583004077F788053
:10111D0003B90803120D533002057F2D020D537FC5
:10112D00202008F87F2B2006F322920280CF7F002B
:10113D00B4070050052461F8E6FF22286E756C6C2B
:10114D002900D201120D183001F8C201786A30D58C
:10115D000108F6020DBE2D50434958120D182403F7
:10116D00B405004001E490116393120D44743A12DA
:0A117D000D44D203756A04020F90BE
:10080000F920E72824F950037907E4F42402FB18BF
:10081000DBFDE624FB5014E9600DE4F618E604F66F
:0F082000B40A08E4F6D9F57401F60A22C2D5220B
:10082F00ED33EC3392D5FA602AB4FF33EDC2E77B98
:10083F00FF60067A087954E4227A08795D20D5049E
:10084F007A087958224E614E002B494E46002D49A9
:10085F004E4600E47A08F608DAFC7B00740722E8BB
:10086F00C0E0ECC0E0EDC0E0EEC0E0EFC0E0EA7544
:10087F00F010A4CAABF075F04DA42BFBE435F0FCDF
:10088F00EA2410FAEB34C5FBEC34D9FCEDC2E7FFD8
:10089F0075F056A4F42411C5F0F434C58FF0A42AD2
:1008AF00E5F03BE43CF620E714120C00D0E0FFD05B
:1008BF00E0FED0E0FDD0E0FC120B338014F4041204
:1008CF000C00D0E0FFD0E0FED0E0FDD0E0FC120A3B
:1008DF002AD0E0F8E6FAEDD2E7CD33EC332482FBF1
:1008EF00E4C3CF33CFCE33CECD33CD33DBF37B0762
:1008FF0075F00A846004F6081B0AE5F0F6088FF01D
:10090F00740AA4FFACF08EF0740AA42CFEACF05065
:10091F00010C8DF0740AA42CFDE435F0F608DBDE33
:03092F0074072228
:10093200020C75E86480F8E933E83360110460F072
:10094200ED33EC337009E8FCE9FDEAFEEBFF22042B
:1009520060DED3EB9FEA9EE99DE8C2E78CF0C2F726
:1009620095F0400CE8CCF8E9CDF9EACEFAEBCFFBF2
:10097200120C4085D0F05804700320D5B3E80470FF
:10098200075002B2D5020C7F92D5EC0460F7E4CC9A
:10099200C0E0C398F8603B94186008400DD0E0FBBB
:1009A200020C57E4FBFAC9FC8028E830E406E4C9EB
:1009B200FBE4CAFCE830E305E4C9CACBFCE854070F
:1009C2006010F8C3E913F9EA13FAEB13FBEC13FC1A
:1009D200D8F130F52FC3E49CFCEF9BFFEE9AFEEDBD
:1009E20099FDD0E0FBEF4E4D4C701222DB03020C5E
:1009F2007CEC2CFCEF33FFEE33FEED33FDED30E704
:100A0200EB020C57EF2BFFEE3AFEED39FDD0E0FB87
:100A120050130BBB0003020C7FED13FDEE13FEEF30
:080A220013FFEC13FC020C575A
:100A2A00EC4D6011E8497017ED33EC3304600DE4C6
:100A3A00FCFFFEFD22E933E8330470F8020C75125C
:100A4A000C4058046009E4CC24815006285009025D
:100A5A000C7F284003020C7CC0E0EB4A7044B9804A
:100A6A0006D0E0FB020C6BEF4E701CBD8008EBFF5A
:100A7A00EAFEE9FD80EBE98DF0A4FEE5F0020B1336
:100A8A00E9CDF9EAFEEBFFEF89F0A4FCE5F0CE89A7
:100A9A00F0A42EFFE435F0CD89F0A42DFEE435F064
:100AAA008067EF4E7005BD80D780C3EF8BF0A4AC92
:100ABA00F0EE8BF0A42CFCE435F0F8EF8AF0A42CCD
:100ACA00E5F038FCE433CB8DF0A42CFCE5F03BF8E0
:100ADA00EE8AF0A42CFCE5F038F8E433CF89F0A4D0
:100AEA002CFCE5F038CF3400CE89F0A42FFFE5F0D6
:100AFA003EFEE433C98DF0A42EFEE5F039CD8AF02E
:100B0A00A42FFFE5F03EFEE43DFD33D0E0FB5007A5
:100B1A000BBB000F020C7FEC2CFCEF33FFEE33FE15
:060B2A00ED33FD020C5743
:100B3000020C7FEC5D046005E859047003020C753B
:100B4000120C40580460F6EC4860F2EC7004FDFEB4
:100B5000FF22C860DB2481C85009C3986002500698
:100B6000020C7C9850CAF582E9294B4A7005AB8289
:100B7000020C6B75F0007C1A7880C3EF9BEE9AED47
:100B800099400DC3EF9BFFEE9AFEED99FDE842F010
:100B9000DC23ACF0D0E0FFD0E0FED0E0FDAB822063
:100BA000E7101BEB60BAEC2CFCEF33FFEE33FEEDED
:100BB00033FD020C57E803F830E705C0F075F0008C
:100BC000EF2FFFEE33FEED33FD40B830E7C280AAD1
:100BD0003F8000004120000042C80000447A00002D
:100BE000461C400047C35000497424004B189680AF
:100BF0004CBEBC205A0E1BCA6753C21C749DC5AEA6
:100C0000FB60065407601C2323120C2EEB54386043
:100C100009120C1A120C29120A2AECF8EDF9EEFA54
:100C2000EFCB22EB120C2980F1543803241C900BDB
:100C3000D0FE93FC0EEE93FD0EEE930ECE93FF22AC
:100C4000E9D2E7C933E833F892D5EDD2E7CD33ECFA
:070C500033FC5002B2D52273
:100C5700EC30E7100FBF000C0EBE00080DBD0004FE
:100C67000BEB6014A2D5EB13FCED92E7FD2274FFAA
:100C7700FCFDFEFF22E480F8A2D574FF13FC7D8003
:030C8700E480EF17
:100C8A00BB010689828A83E0225002E722BBFE0268
:090C9A00E32289828A83E493229B
:100CA300BB010CE58229F582E5833AF583E0225006
:100CB30006E92582F8E622BBFE06E92582F8E22250
:0D0CC300E58229F582E5833AF583E493226A
:100CD000BB010689828A83F0225002F722BBFE0103
:020CE000F322FD
:100CE200FAE6FB0808E6F925F0F618E6CA3AF62213
:100CF200D083D082F8E4937012740193700DA3A391
:100D020093F8740193F5828883E4737402936860A4
:060D1200EFA3A3A380DFA4
:10144E00EFB40A07740D121459740A309811A89942
:10145E00B8130CC2983098FDA899C298B811F630FE
:07146E0099FDC299F59922D6
:00000001FF
